:040000005DEF03F0BD
:100300000001000A006400E803102754656D706561
:10031000726174757265203D2025642046616872A3
:10032000656E686569740A0D0044617461207265C8
:100330006365697665643A2025642062797465286E
:1003400073292C20200048656C6C6F2066726F6DDD
:1003500020436F726E656C6C20437570210A0D002E
:100360001B5B324A0000320E356E000E366E7DD0B9
:10037000250E3B18D8B404D03B5079EC03F075D06F
:10038000000E376E30C0F6FF31C0F7FF304A312A19
:100390000800F5CF3BF03B50000AD8B41200640AC5
:1003A000D8B403D00D0AD8A460D035C0D9FF36C068
:1003B000DAFFDECF39F0DDCF3AF0020E3526000E3F
:1003C00036223AAE06D0030E3712396C3A1ED8B038
:1003D0003A2A010E3B6E050E3B18D8B412D03B50A2
:1003E000020D010EF324F66E030EF420F76E0900E1
:1003F000F550395C0900F5503A58D8A002D03B2A94
:10040000EAD737C034F0030E3416D8B403D02D0E1B
:1004100079EC03F03BC038F024D03850020D010EC7
:10042000F324F66E030EF420F76E0900F5CF26F0E4
:100430000A00F5CF27F039C024F03AC025F0CFEC00
:1004400002F024C02BF025C02CF0000E2E6E0A0EF8
:100450002D6E20EC03F02B50300F3B6E3B5079ECAF
:1004600003F038063828D8A4D8D730C0F6FF31C0FA
:10047000F7FF304A312A0800F5CF3BF03B50D8B4A3
:10048000120076D7800E6F6E6EB0FED7000E776EBC
:10049000738A7398C00E706E800E716E050E726E48
:1004A000000E0F011A6F000E0F011B6F0F0118696C
:1004B000E00E0F01196F000E0F011E6F000E0F01ED
:1004C0001F6F0F011C69E00E0F011D6F000E0D0163
:1004D000D46F000E0D01D56F000E0F01026F000EDC
:1004E0000F01036F0A0E0F01006FA00E0F01016FC5
:1004F000000E0F01046F000E0F01056F0F01086958
:10050000000E0F01096F0F010C69000E0F010D6F36
:100510000F011069000E0F01116F0F011469000E19
:100520000F01156F000E6F6E6EB0FED7000E606E7D
:10053000000E0F01506F608A1200F8EC02F0898003
:10054000600E306E030E316EB3EC01F00A0E79ECE2
:1005500003F00D0E79EC03F0460E306E030E316E93
:10056000B3EC01F041EC03F03C6E3C503D6E3E6A52
:100570003D503E10D8B4F6D7290E306E030E316EC2
:100580001EC032F0336AB3EC01F00B0E306E030E76
:10059000316E05C032F0336AB3EC01F0E3D7000EE0
:1005A000296E000E286E26502710D8B41CD0010EDC
:1005B0002A6E04D0D890263627362A2A27AEFAD7B4
:1005C000D890283629362650245C27502558D8A0A4
:1005D00005D02650245E2750255A2880D8902732EF
:1005E00026322A2EEDD728C024F029C025F012008B
:1005F000D388D38AD38C9B9CC180C182C184C1869D
:1006000092909394938668EC03F072EC03F00F01E0
:1006100040810F0140830F0130910F0130930F0192
:1006200020910F012093200E736E42EC02F0A35034
:100630000509A36E000EA46EA5500509A56E120053
:100640002D502E10D8B418D0010E2F6E04D0D89093
:100650002D362E362F2A2EAEFAD72D502B5C2E504B
:100660002C58D8A004D02D502B5E2E502C5AD89048
:100670002E322D322F2EF1D72BC02BF02CC02CF088
:10068000120063CF1FF064CF20F061CF21F062CF62
:1006900022F065CF1EF066CF05F067CF06F068CF79
:1006A00007F069CF08F06ACF09F06BCF0AF06CCF82
:1006B0000BF06DCF0CF0010E120000EE01F0230ED6
:1006C000EE6AE806FDE1000EF86E00019DEF02F013
:1006D000949CB8960C0EAF6EAC9CAC8AAC98AC9463
:1006E000AB8E1200010EC26E0E0EC16EB30EC06E46
:0E06F0001200246E24C0ADFFACB21200FDD784
:020000040020DA
:08000000FFFFFFFFFFFFFFFF00
:020000040030CA
:0E000000FF08001EFF0085FF0FC00FE00F403D
:00000001FF
