:0400000084EF03F096
:100300000001000A006400E803102754656D706561
:10031000726174757265203D2025642046616872A3
:10032000656E686569740A0D0044617461207265C8
:100330006365697665643A2025642062797465286E
:1003400073292C20200048656C6C6F2066726F6DDD
:1003500020436F726E656C6C20437570210A0D002E
:100360001B5B324A00000F0E126E000E136E7DD022
:10037000250E1818D8B404D0185099EC03F075D095
:10038000000E146E0DC0F6FF0EC0F7FF0D4A0E2AC8
:100390000800F5CF18F01850000AD8B41200640A0B
:1003A000D8B403D00D0AD8A460D012C0D9FF13C0AE
:1003B000DAFFDECF16F0DDCF17F0020E1226000EA8
:1003C000132217AE06D0030E1412166C171ED8B0E7
:1003D000172A010E186E050E1818D8B412D018502E
:1003E000020D010EF324F66E030EF420F76E0900E1
:1003F000F550165C0900F5501758D8A002D0182AFD
:10040000EAD714C011F0030E1116D8B403D02D0E84
:1004100099EC03F018C015F024D01550020D010E10
:10042000F324F66E030EF420F76E0900F5CF03F007
:100430000A00F5CF04F016C001F017C002F026EC58
:1004400003F001C008F002C009F0000E0B6E0A0EA6
:100450000A6E4FEC03F00850300F186E185099ECEC
:1004600003F015061528D8A4D8D70DC0F6FF0EC086
:10047000F7FF0D4A0E2A0800F5CF18F01850D8B42F
:10048000120076D7000E016E60AE1CD063CF28F04C
:1004900064CF29F061CF2AF062CF2BF065CF27F02F
:1004A00066CF1FF067CF20F068CF21F069CF22F030
:1004B0006ACF23F06BCF24F06CCF25F06DCF26F000
:1004C000609E3FD00F0150AF1DD053CF28F054CFC6
:1004D00029F051CF2AF052CF2BF055CF27F056CF2D
:1004E0001FF057CF20F058CF21F059CF22F05ACF2C
:1004F00023F05BCF24F05CCF25F05DCF26F00F0119
:10050000509F1FD00E0120AF1ED023CE28F024CE46
:1005100029F021CE2AF022CE2BF025CE27F026CEB0
:100520001FF027CE20F028CE21F029CE22F02ACEAF
:1005300023F02BCE24F02CCE25F02DCE26F00E016C
:10054000209F010E016E0104D8A405D0000E016E9B
:10055000A492010E1200000E1200800E6F6E6EB09B
:10056000FED7000E776E738A7398C00E706E800E81
:10057000716E050E726E000E0F011A6F000E0F01E4
:100580001B6F0F011869E00E0F01196F000E0F01AC
:100590001E6F000E0F011F6F0F011C69E00E0F018F
:1005A0001D6F000E0D01D46F000E0D01D56F000EF2
:1005B0000F01026F000E0F01036F550E0F01006F48
:1005C000C00E0F01016F000E0F010A6F000E0F0128
:1005D0000B6F330E0F01086FC00E0F01096F600E15
:1005E000606E600E0F01506F000E6F6E6EA01200F5
:1005F000FDD770EC03F08980600E0D6E030E0E6E59
:10060000B3EC01F00A0E99EC03F00D0E99EC03F037
:10061000460E0D6E030E0E6EB3EC01F042EC02F0CE
:100620000009D8B4FBD7290E0D6E030E0E6E27C03D
:100630000FF0106AB3EC01F00B0E0D6E030E0E6E90
:100640001FC00FF0106AB3EC01F0E8D7000E066E81
:10065000000E056E03500410D8B41CD0010E076EB6
:1006600004D0D89003360436072A04AEFAD7D890BF
:10067000053606360350015C04500258D8A005D058
:100680000350015E0450025A0580D89004320332B0
:10069000072EEDD705C001F006C002F012000A5087
:1006A0000B10D8B418D0010E0C6E04D0D8900A36B6
:1006B0000B360C2A0BAEFAD70A50085C0B500958BF
:1006C000D8A004D00A50085E0B50095AD8900B32BB
:1006D0000A320C2EF1D708C008F009C009F0120048
:1006E000D388D38AD38C9B9C000E1A6E000E196E91
:1006F000C180C182C184C1869280939493868FEC1D
:1007000003F0ADEC02F0120000EE19F0130EEE6AE9
:10071000E806FDE1000EF86E0001F9EF02F0949C8E
:10072000B8960C0EAF6EAC9CAC8AAC98AC94AB8E09
:0E0730001200016E01C0ADFFACB21200FDD789
:020000040020DA
:08000000FFFFFFFFFFFFFFFF00
:020000040030CA
:0E000000FF08001EFF0085FF0FC00FE00F403D
:00000001FF
