:040000001AEF04F0FF
:100300000001000A006400E803102701001000004B
:1003100001001054656D7065726174757265203DE1
:100320002025642046616872656E686569740A0DEF
:1003300000446174612072656365697665643A2082
:10034000256420627974652873292C202000486573
:100350006C6C6F2066726F6D20436F726E656C6C93
:1003600020437570210A0D0052656365697665202A
:1003700041444452203D2025580A0D00303132338B
:10038000343536373839414243444546001B5B32E9
:100390004A0000000F0E136E000E146EE3D0250EFF
:1003A0001918D8B404D019502FEC04F0DBD0000E8B
:1003B000166E02D0168E1AD00DC0F6FF0EC0F7FFD3
:1003C0000D4A0E2A0800F5CF19F01950000AD8B4CA
:1003D0001200580AD8B4EED73C0AD8B407D00D0A98
:1003E000D8B404D0110AD8B4E5D7BCD016BE15D005
:1003F00013C0D9FF14C0DAFFDECF17F0DDCF18F03D
:10040000020E1326000E142218AE44D0030E16124C
:10041000176C181ED8B0182A3DD013C0D9FF14C0CD
:10042000DAFFDECF17F0DDCF18F0020E1326000E34
:10043000142230D0010E196E050E1918D8B432D01E
:100440001950020D010EF324F66E030EF420F76E20
:100450000900F550175C0900F5501858D8A022D0B3
:10046000192AEAD7010E196E040E1918D8B41AD039
:100470001950020D0B0EF324F66E030EF420F76EE6
:100480000900F550175C0900F5501858D8A00AD09B
:10049000192AEAD71650800B000AD8B4CBD7800AA5
:1004A000D8B4E0D716C011F0030E1116D8B403D09B
:1004B0002D0E2FEC04F019C015F050D01550020D80
:1004C000010EF324F66E030EF420F76E0900F5CF4B
:1004D00003F00A00F5CF04F017C001F018C002F0D5
:1004E000BCEC03F001C008F002C009F0000E0B6E76
:1004F0000A0E0A6EE5EC03F00850300F196E2BD08F
:1005000017C001F018C002F01550020D0B0EF324B5
:10051000F66E030EF420F76E0900F5CF03F00A0023
:10052000F5CF04F0BCEC03F001500F0B126E12502B
:10053000010D7C0EF324F66E030EF420F76E080016
:10054000F5CF19F008D01650800B000AD8B4B6D7F2
:10055000800AD8B4D5D719502FEC04F01506152809
:10056000D8A4F1D70DC0F6FF0EC0F7FF0D4A0E2A32
:100570000800F5CF19F01950D8B4120010D7000EAA
:10058000016E60AE1CD063CF2DF064CF2EF061CF32
:100590002FF062CF30F065CF2CF066CF24F067CF1C
:1005A00025F068CF26F069CF27F06ACF28F06BCF0F
:1005B00029F06CCF2AF06DCF2BF0609E3FD00F0159
:1005C00050AF1DD053CF2DF054CF2EF051CF2FF080
:1005D00052CF30F055CF2CF056CF24F057CF25F026
:1005E00058CF26F059CF27F05ACF28F05BCF29F00B
:1005F0005CCF2AF05DCF2BF00F01509F1FD00E0172
:1006000020AF1ED023CE2DF024CE2EF021CE2FF001
:1006100022CE30F025CE2CF026CE24F027CE25F0A9
:1006200028CE26F029CE27F02ACE28F02BCE29F08E
:100630002CCE2AF02DCE2BF00E01209F010E016E44
:100640000104D8A405D0000E016EA492010E120080
:10065000000E120006EC04F089808D0E0D6E030E64
:100660000E6ECAEC01F00A0E2FEC04F00D0E2FEC0A
:1006700004F04E0E0D6E030E0E6ECAEC01F0BFECD0
:1006800002F00009D8B4FBD7680E0D6E030E0E6E93
:1006900030C01AF0050E1B6ED8901A321B2EFCD7F4
:1006A0001A502FC01CF01D6AD8901C361D36D890E9
:1006B0001C361D36D8901C361D361C100F6E1D5072
:1006C000106ECAEC01F0310E0D6E030E0E6E2CC0D2
:1006D0000FF0106ACAEC01F0130E0D6E030E0E6ED1
:1006E00024C00FF0106ACAEC01F0C9D7800E6F6EFB
:1006F0006EB0FED7000E776E738A7398C00E706E60
:10070000800E716E050E726E000E0F011A6F000ED4
:100710000F011B6F0F011869E00E0F01196F000E1A
:100720000F011E6F000E0F011F6F0F011C69E00EFD
:100730000F011D6F000E0F01026F000E0F01036FFE
:10074000000E0F01006F200E0F01016F000E0F0150
:10075000066F000E0F01076F000E0F01046F400EB1
:100760000F01056F200E606E200E0F01506F000EFE
:100770006F6E6EA01200FDD7000E066E000E056EA5
:1007800003500410D8B41CD0010E076E04D0D890CA
:1007900003360436072A04AEFAD7D8900536063653
:1007A0000350015C04500258D8A005D00350015EEC
:1007B0000450025A0580D89004320332072EEDD738
:1007C00005C001F006C002F012000A500B10D8B4A8
:1007D00018D0010E0C6E04D0D8900A360B360C2AB5
:1007E0000BAEFAD70A50085C0B500958D8A004D0B9
:1007F0000A50085E0B50095AD8900B320A320C2E60
:10080000F1D708C008F009C009F01200D388D38AD4
:10081000D38C9B9C000E1F6E000E1E6EC180C18289
:10082000C184C18692809394938625EC04F076EC83
:1008300003F0120000EE1EF0130EEE6AE806FDE172
:10084000000EF86E00012AEF03F0949CB8960C0E8F
:10085000AF6EAC9CAC8AAC98AC94AB8E1200016EBF
:0A08600001C0ADFFACB21200FDD7DD
:020000040020DA
:08000000FFFFFFFFFFFFFFFF00
:020000040030CA
:0E000000FF08001EFF0085FF0FC00FE00F403D
:00000001FF
