:040000009BEF04F07E
:100300000048656C6C6F2066726F6D20436F726E73
:10031000656C6C20437570210A0D001B5B324A002E
:10032000000003C005F0066A076A0234053601E3DF
:10033000068005500F6E0F50D8A409D0000E016E34
:10034000000E026E000E036E000E046E1200170EF9
:10035000056E01C006F002C007F003C008F00528D2
:10036000096E04D0D890083207320632092EFAD727
:1003700006500A6E028EFF0E0116FF0E0216000EC8
:10038000031601500B6E02500C6E03500D6E0E6A78
:100390008E0E0F5E0FAE16D00F50800A8F0FD8B0A2
:1003A00009D0000E016E000E026E000E036E000EEC
:1003B000046E1200D8900E320D320C320B320F3E0A
:1003C000F9D715D0170E0F640FD0000E016E000E76
:1003D000026E000E036E000E046E1200D8900B36F3
:1003E0000C360D360E360F060F50D8A4F7D70A502C
:1003F000D8B408D00E1E0D1E0C1E0B6C000E0C2265
:100400000D220E220BC001F00CC002F00DC003F053
:100410000EC004F012000EC012F0136A146A0D34FC
:10042000123601E313801250156E1550D8A407D070
:10043000000E0C6E000E0D6E000E0E6E120011C03E
:1004400012F0136A146A1034123601E3138012504A
:100450001A6E1A50D8A407D0000E0C6E000E0D6E46
:10046000000E0E6E12001A507B0F15260EC01AF0E9
:1004700011501A1A800E1A160D8E108EFF0E0F16BE
:10048000FF0E1016000E1116000E166E000E176EDF
:10049000000E186E070E196E0CA006D00F5016260F
:1004A0001050172211501822D8900E320D320C32F3
:1004B000D8900F3610361136192EEED7090E196E58
:1004C0000CA006D00F5016261050172211501822DB
:1004D000D8900E320D320C32D890183217321632B4
:1004E000192EEED716C001F017C002F018C003F0A5
:1004F00015C004F01AC005F0B4EC03F001C00CF014
:1005000002C00DF003C00EF012001DC021F0226ADF
:10051000236A1C34213601E322802150286E2850A2
:10052000D8A407D0000E1B6E000E1C6E000E1D6EB0
:10053000120020C021F0226A236A1F34213601E311
:1005400022802150296E2950D8A407D0000E1B6E9E
:10055000000E1C6E000E1D6E1200000E256E000EA9
:10056000266E000E276E2950890F285E1DC029F0C7
:100570002050291A800E29161C8EFF0E1B16FF0E06
:100580001C16000E1D161F8EFF0E1E16FF0E1F16C8
:10059000000E2016180E246ED890253626362736E3
:1005A0001E501B5C1F501C5820501D58D8A007D04F
:1005B0001E501B5E1F501C5A20501D5A2580D8907B
:1005C0001B361C361D36242EE7D725C001F026C069
:1005D00002F027C003F028C004F029C005F0B4ECF5
:1005E00003F001C01BF002C01CF003C01DF012009C
:1005F00039EC04F089801B0E026E030E036E61EC71
:1006000004F00A0EB9EC04F00D0EB9EC04F0010E82
:10061000026E030E036E61EC04F076EC04F001C090
:1006200030F002C031F0000E0F6EA00E106E400EC2
:10063000116E30C009F031C00AF089EC04F009C035
:100640000CF00AC00DF00BC00EF00BEC02F00CC069
:100650001BF00DC01CF00EC01DF0000E1E6E800EB3
:100660001F6E440E206E85EC02F01BC02AF01CC0E9
:100670002BF01DC02CF02AC01BF02BC01CF02CC08E
:100680001DF0D70E1E6E230E1F6E3C0E206E85ECE5
:1006900002F01BC02DF01CC02EF01DC02FF02DC08D
:1006A00001F02EC002F02FC003F091EC01F00150D8
:1006B000546E0BEC04F0B1D7800E6F6E6EB0FED7A7
:1006C000000E776E738A7398C00E706E800E716E16
:1006D000050E726E000E0F011A6F000E0F011B6FD8
:1006E0000F0118690F011969000E0F011E6F000E2E
:1006F0000F011F6F0F011C690F011D69030E0D0112
:10070000D46F000E0D01D56F000E0F01026F000EA9
:100710000F01036FCC0E0F01006F000E0F01016F70
:100720000F0104690F010569608C608A0F01086977
:10073000000E0F01096F0F010C69000E0F010D6F04
:100740000F011069000E0F01116F0F011469000EE7
:100750000F01156F000E6F6E6EB0FED7000E606E4B
:10076000000E0F01506F12000450D8B405D0015094
:1007700002100310D8A40CD0000E016E000E026E01
:10078000000E036E1200042AD890033202320132A6
:10079000000E0114066E000E0214076EFE0E031406
:1007A000086E065007100810D8B40CD0ECD7042AF5
:1007B000010E0126000E0222000E0322D890033201
:1007C00002320132000E0114066E000E0214076E92
:1007D000FF0E0314086E065007100810D8B406D098
:1007E000E6D70406D89001360236033602BE03D09F
:1007F000020E0460F6D704A0029ED8900432045082
:1008000003120550D8A4038E01C001F002C002F00B
:1008100003C003F01200A4940400000E0F01436F04
:10082000000E0F01446F550E0F01416F000E0F01B6
:10083000426F080E0F01456F54C046FFAA0E0F010C
:10084000476F020E0F01486F030E0F01496F040E30
:100850000F014A6F050E0F014B6F060E0F014C6F13
:10086000070E0F014D6F0F0140870F0140A71200C7
:10087000FCD7D388D38AD38C9B9CC180C182C1848E
:10088000C186929093949386A8EC04F0B2EC04F0A5
:100890000F0140810F0140830F0130910F01309310
:1008A0000F0120910F012093200E736E5CEC03F07A
:1008B000A3500509A36E000EA46EA5500509A56EF0
:1008C0001200040E046E000E056E03D00650B9EC43
:1008D00004F002C0F6FF03C0F7FF024A032A080033
:1008E000F5CF06F00650D8B41200F0D7C282C2B2DB
:1008F000FED7C350C4CF03F0046A03C004F0036AF8
:100900000310056E0450066E05C001F006C002F02B
:10091000120009C001F00AC002F0036A8E0E046ED4
:10092000000E056EB4EC03F001C009F002C00AF03D
:1009300003C00BF0120000EE32F0230EEE6AE80660
:10094000FDE1000EF86E030EF76E0001F8EF02F005
:10095000949CB8960C0EAF6EAC9CAC8AAC98AC94E0
:10096000AB8E1200010EC26E0E0EC16EB30EC06EC3
:0E0970001200016E01C0ADFFACB21200FDD747
:020000040020DA
:08000000FFFFFFFFFFFFFFFF00
:020000040030CA
:0E000000FF08001EFF0085FF0FC00FE00F403D
:00000001FF
