:0400000092EF04F087
:100300000048656C6C6F2066726F6D20436F726E73
:10031000656C6C20437570210A0D001B5B324A002E
:10032000000003C005F0066A076A0234053601E3DF
:10033000068005500F6E0F50D8A409D0000E016E34
:10034000000E026E000E036E000E046E1200170EF9
:10035000056E01C006F002C007F003C008F00528D2
:10036000096E04D0D890083207320632092EFAD727
:1003700006500A6E028EFF0E0116FF0E0216000EC8
:10038000031601500B6E02500C6E03500D6E0E6A78
:100390008E0E0F5E0FAE16D00F50800A8F0FD8B0A2
:1003A00009D0000E016E000E026E000E036E000EEC
:1003B000046E1200D8900E320D320C320B320F3E0A
:1003C000F9D715D0170E0F640FD0000E016E000E76
:1003D000026E000E036E000E046E1200D8900B36F3
:1003E0000C360D360E360F060F50D8A4F7D70A502C
:1003F000D8B408D00E1E0D1E0C1E0B6C000E0C2265
:100400000D220E220BC001F00CC002F00DC003F053
:100410000EC004F012000EC012F0136A146A0D34FC
:10042000123601E313801250156E1550D8A407D070
:10043000000E0C6E000E0D6E000E0E6E120011C03E
:1004400012F0136A146A1034123601E3138012504A
:100450001A6E1A50D8A407D0000E0C6E000E0D6E46
:10046000000E0E6E12001A507B0F15260EC01AF0E9
:1004700011501A1A800E1A160D8E108EFF0E0F16BE
:10048000FF0E1016000E1116000E166E000E176EDF
:10049000000E186E070E196E0CA006D00F5016260F
:1004A0001050172211501822D8900E320D320C32F3
:1004B000D8900F3610361136192EEED7090E196E58
:1004C0000CA006D00F5016261050172211501822DB
:1004D000D8900E320D320C32D890183217321632B4
:1004E000192EEED716C001F017C002F018C003F0A5
:1004F00015C004F01AC005F070EC03F001C00CF058
:1005000002C00DF003C00EF0120042EC04F089802E
:100510001B0E026E030E036E58EC04F00A0EB9ECCB
:1005200004F00D0EB9EC04F0010E026E030E036E22
:1005300058EC04F06DEC04F001C030F002C031F072
:10054000000E0F6EA00E106E400E116E30C009F03E
:1005500031C00AF080EC04F009C00CF00AC00DF0C4
:100560000BC00EF00BEC02F00CC01BF00DC01CF029
:100570000EC01DF0000E1E6E800E1F6E440E206E0B
:10058000FDEC02F01BC02AF01CC02BF01DC02CF0AB
:100590002AC01BF02BC01CF02CC01DF0D70E1E6E05
:1005A000230E1F6E3C0E206EFDEC02F01BC02DF0E2
:1005B0001CC02EF01DC02FF02DC001F02EC002F087
:1005C0002FC003F091EC01F00150476E13EC04F0E2
:1005D000000E336E000E326E33BE06D0F40E325C67
:1005E000010E3358D8B0A6D7020E026E9A0E016ED5
:1005F000A9EC04F0324A332AEFD71DC021F0226A59
:10060000236A1C34213601E322802150286E2850B1
:10061000D8A407D0000E1B6E000E1C6E000E1D6EBF
:10062000120020C021F0226A236A1F34213601E320
:1006300022802150296E2950D8A407D0000E1B6EAD
:10064000000E1C6E000E1D6E1200000E256E000EB8
:10065000266E000E276E2950890F285E1DC029F0D6
:100660002050291A800E29161C8EFF0E1B16FF0E15
:100670001C16000E1D161F8EFF0E1E16FF0E1F16D7
:10068000000E2016180E246ED890253626362736F2
:100690001E501B5C1F501C5820501D58D8A007D05E
:1006A0001E501B5E1F501C5A20501D5A2580D8908A
:1006B0001B361C361D36242EE7D725C001F026C078
:1006C00002F027C003F028C004F029C005F070EC48
:1006D00003F001C01BF002C01CF003C01DF01200AB
:1006E0000450D8B405D0015002100310D8A40CD087
:1006F000000E016E000E026E000E036E1200042A40
:10070000D890033202320132000E0114066E000E40
:100710000214076EFE0E0314086E06500710081030
:10072000D8B40CD0ECD7042A010E0126000E022208
:10073000000E0322D890033202320132000E01145F
:10074000066E000E0214076EFF0E0314086E0650AC
:1007500007100810D8B406D0E6D70406D8900136A2
:100760000236033602BE03D0020E0460F6D704A0A0
:10077000029ED8900432045003120550D8A4038E70
:1007800001C001F002C002F003C003F01200800EAD
:100790006F6E6EB0FED7000E776E738A7398C00EC0
:1007A000706E800E716E050E726E000E0F011A6F64
:1007B000000E0F011B6F0F011869E00E0F01196F7A
:1007C000000E0F011E6F000E0F011F6F0F011C693D
:1007D000E00E0F011D6F030E0D01D46F000E0D0111
:1007E000D56F000E0F01026F000E0F01036F320E66
:1007F0000F01006FC00E0F01016F000E0F010A6F95
:10080000000E0F010B6F330E0F01086FC00E0F01AA
:10081000096F000E6F6E6EB0FED7000E606E000E98
:100820000F01506F1200000E0F01436F000E0F01F9
:10083000446F550E0F01416F000E0F01426F320ED3
:10084000386EC00E396E0F014097010E0F01456FD3
:1008500047C046FFAA0E0F01476F020E0F01486FF7
:10086000030E0F01496F040E0F014A6F050E0F01B1
:100870004B6F060E0F014C6F070E0F014D6F0F01EE
:1008800040871200D388D38AD38C9B9C000E356E90
:10089000000E346EC180C182C184C186928093945F
:1008A00093869FEC04F0C7EC03F0B2EC04F0120066
:1008B000040E046E000E056E03D00650B9EC04F071
:1008C00002C0F6FF03C0F7FF024A032A0800F5CF73
:1008D00006F00650D8B41200F0D7C282C2B2FED7DA
:1008E000C350C4CF03F0046A03C004F0036A0310CA
:1008F000056E0450066E05C001F006C002F012003D
:1009000009C001F00AC002F0036A8E0E046E000EE8
:10091000056E70EC03F001C009F002C00AF003C0DC
:100920000BF0120000EE34F0140EEE6AE806FDE162
:10093000000EF86E030EF76E000185EF02F0949C36
:10094000B8960C0EAF6EAC9CAC8AAC98AC94AB8EE7
:1009500012000106D8A002060128FBE10228D8B443
:100960001200F7D7010EC26E0E0EC16EB30EC06E2E
:0E0970001200016E01C0ADFFACB21200FDD747
:020000040020DA
:08000000FFFFFFFFFFFFFFFF00
:020000040030CA
:0E000000FF08001EFF0085FF0FC00FE00F403D
:00000001FF
