:04000000BDEF02F05E
:100300000048656C6C6F2066726F6D20436F726E73
:10031000656C6C20437570210A0D001B5B324A002E
:100320000000000E146E60AE1CD063CF10F064CFDE
:1003300011F061CF12F062CF13F065CF0FF066CFEE
:1003400007F067CF08F068CF09F069CF0AF06ACFED
:100350000BF06BCF0CF06CCF0DF06DCF0EF0609EFC
:100360003FD00F0150AF1DD053CF10F054CF11F03C
:1003700051CF12F052CF13F055CF0FF056CF07F0F8
:1003800057CF08F058CF09F059CF0AF05ACF0BF0E9
:100390005BCF0CF05CCF0DF05DCF0EF00F01509FE6
:1003A0001FD00E0120AF1ED023CE10F024CE11F0AE
:1003B00021CE12F022CE13F025CE0FF026CE07F07C
:1003C00027CE08F028CE09F029CE0AF02ACE0BF06D
:1003D0002BCE0CF02CCE0DF02DCE0EF00E01209F6A
:1003E000010E146E1404D8A41200000E146EA49210
:1003F0001200800E6F6E6EB0FED7000E776E738A9D
:100400007398C00E706E800E716E050E726E000EC7
:100410000F011A6F000E0F011B6F0F011869E00E1C
:100420000F01196F000E0F011E6F000E0F011F6FDD
:100430000F011C69E00E0F011D6F030E0D01D46F3B
:10044000000E0D01D56F000E0F01026F000E0F019F
:10045000036F320E0F01006FC00E0F01016F000E0F
:100460000F010A6F000E0F010B6F330E0F01086FA3
:10047000C00E0F01096F000E6F6E6EB0FED7000E3A
:10048000606E000E0F01506F1200000E0F01436FDF
:10049000000E0F01446F000E0F01416F000E0F019F
:1004A000426F320E056EC00E066E010E0F01456FD3
:1004B000550E0F01466FAA0E0F01476F020E0F0176
:1004C000486F030E0F01496F040E0F014A6F050EAE
:1004D0000F014B6F060E0F014C6F070E0F014D6F92
:1004E0000F014087120091EC02F089801B0E156EFF
:1004F000030E166EA8EC02F00A0ED4EC02F00D0EFC
:10050000D4EC02F0010E156E030E166EA8EC02F08C
:1005100045EC02F0010E891A91EC01F0010E891AE6
:10052000F7D7D388D38AD38C9B9C000E026E000E23
:10053000016EC180C182C184C18692909286000EF4
:100540008A6E000E936ECAEC02F0F9EC01F0120014
:10055000170E176E000E186E03D01950D4EC02F06F
:1005600015C0F6FF16C0F7FF154A162A0800F5CF8A
:1005700019F01950D8B41200F0D700EE01F0130EA4
:10058000EE6AE806FDE1000EF86E030EF76E00015C
:1005900073EF02F0949CB8960C0EAF6EAC9CAC8AD4
:1005A000AC98AC94AB8E1200146E14C0ADFFACB21C
:0405B0001200FDD761
:020000040020DA
:08000000FFFFFFFFFFFFFFFF00
:020000040030CA
:0E000000FF08001EFF0085FF0FC00FE00F403D
:00000001FF
