:0400000055EF1FF0A9
:103E98001406D8A015061428FBE11528D8B412007A
:103EA800F7D700EE01F0130EEE6AE806FDE1000117
:103EB8005EEF1FF079EC1FF08CEC1FF06BEC1FF03D
:103EC800000E156EA00E146E4CEC1FF0F5D70250C4
:103ED80006E10128D8B003D0014A022A1200000ED8
:103EE800026E000E016E8A7E1200D388D38AD38CAC
:103EF8009B9C000E026E000E016EC180C182C184BF
:103F0800C186000E8A6E000E936EB4EC1FF012008C
:103F1800000E0F01436F000E0F01446F320E056E45
:103F2800C00E066E080E0F01456F000E0F01466F9A
:103F3800010E0F01476F020E0F01486F030E0F01AC
:103F4800496F040E0F014A6F050E0F014B6F060EE5
:103F58000F014C6F070E0F014D6F0F0140871200C4
:103F6800800E6F6E6EB0FED7000E776E739A7398E0
:103F7800C00E706E800E716E050E726E000E0F010F
:103F88001A6F000E0F011B6F0F011869E00E0F0169
:103F9800196F000E0F011E6F000E0F011F6F0F012A
:103FA8001C69E00E0F011D6F030E0D01D46F000E8A
:103FB8000D01D56F000E0F01026F000E0F01036F88
:103FC800320E0F01006FC00E0F01016F000E0F01BE
:103FD8000A6F000E0F010B6F330E0F01086FC00E32
:103FE8000F01096F000E6F6E6EB0FED7000E606E87
:083FF800000E0F01506F1200D2
:020000040020DA
:08000000FFFFFFFFFFFFFFFF00
:020000040030CA
:0E000000FF08001EFF0085FF0FC00FE00F403D
:00000001FF
